:1000000004EF08F00000000043EF07F000000000DC
:0C00100000000000000000003DEF08F0C0
:10001C000F0E0C6E470E0D6E0D2EFED70C2EFCD750
:06002C00000000001200BC
:06003200000000001200B6
:0A003800210E0D6E0D2EFED71200F2
:080042000AAE029E000E12003E
:10004A000B840BAE30EF00F0010E036E026A016AF8
:0A005A00006A0A360232FF0E12009F
:0E006400026A016A006A086A036A000E12004E
:10007200010168BF02D0819801D0818868BD02D099
:10008200819A01D0818A68BB02D0819C01D0818C87
:1000920068B902D0819E01D0818E27BD02D08186AF
:1000A20001D081968184C4DF819468B702D081989F
:1000B20001D0818868B502D0819A01D0818A68B363
:1000C20002D0819C01D0818C68B102D0819E01D086
:1000D200818E27BD02D0818601D081968184A8DFDE
:0E00E200819427AD02D099DF01D0A5DF120076
:1000F0000B820BAE82EF00F00368026801680068B3
:080100000A360232FF0E120064
:100108000B800BAE90EF00F0026A0AAEFF0E026E93
:0C011800016E006E0A360232FF0E12006B
:0E0124000101279D67C168F1A2DF278D12003F
:080132000B6A0B86FF0E1200A0
:10013A000C6A0E6A0250D8A4B6EF00F001C002F0B1
:10014A0000C001F0006A0E860250D8A4B6EF00F093
:10015A0001C002F0016A0E960E880250D8B4C8EFA8
:10016A0000F00E50035ED8A4D8A0CDEF00F0D890CE
:10017A0002BED2EF00F0003601360236032EBDEF82
:10018A0000F0CDEF00F0010E0C6E67DFD5EF00F046
:10019A00020E0C6E55DFD5EF00F0040E0C6E4CDF2C
:0201AA00120041
:1001AC00086A096A100E0C6E0134083609360450C0
:1001BC00085E0550D8A0053C095ED8B007D00450A5
:1001CC0008260550D8B0053C0926D89000360136D3
:0601DC000C2EEAD7120010
:1001E200086A096A000E0762036476EF01F00250A2
:1001F20006180A6E075003267E0ED8A007EF01F0FC
:10020200035ED8B07AEF01F00BEF01F0035ED8A0E5
:100212007EEF01F0028E068E02C00EF001C00BF0DE
:1002220000C00DF000500402F4CF0CF001500502A2
:10023200F4CF00F0F3CF08F00402F3500C26F45090
:100242000822000E00220D500502F3500C26F45035
:100252000822000E002202500402F3500826F45035
:10026200002202500502016A000E0122F35000260C
:10027200F45001220D500602F3500826F4500022D9
:10028200026A000E012202220B500602F3500026DF
:10029200F4500122000E02220E500602F3500126F3
:1002A200F450022202BE5EEF01F00836003601363B
:1002B20002360306D8B47EEF01F071EF01F0D88068
:1002C200800E08640030000E002201220222D8A013
:1002D20071EF01F0023201320032034A7AEF01F08B
:1002E2000AAE029E000E80EF01F0010EBADE80EF30
:1002F20001F0020EFCDE80EF01F0040EA5DE12001A
:100302000050086E0150006E016A026A036A0B6AAD
:100312000C6A960E036E0A6A00C001F008C000F073
:08032200086A026A09DF1200FB
:10032A000101646B050E645D0AE264516225E16EA7
:10033A00000E6321E26E200EE66E642BF3D7645141
:10034A006225E16E000E6321E26EE66A640764517B
:10035A006225656F000E6321666F0A0E046E000E39
:10036A00056E60C100F061C101F01BDF08C000F03A
:10037A0009C001F0300E002665C1E1FF66C1E2FF47
:10038A0000C0E6FF0A0E046E000E056E60C100F0A2
:10039A0061C101F006DF00C060F101C061F1000E29
:1003AA00011802E1000E001801E102D06407CFD75C
:0203BA0012002F
:1003BC00010154A704D0010E686F55DE549712004A
:1003CC000B6A0C6A0A6A0350D8B430EF02F0028E42
:1003DC008E0E035E03BEF8EF01F0D8B4F8EF01F017
:1003EC0034EF02F0036C080E035CD8A00FEF02F0A0
:1003FC00036E013602C001F0026A080E035CD8A03D
:10040C000FEF02F00136016A0350D8A4D89019EF0F
:10041C0002F00350D8B419EF02F0D8900232013236
:10042C00032E13EF02F00BBC01A026EF02F0D8A0B4
:10043C0026EF02F0012AD8B4022A02BE43EF02F0E2
:10044C000AAE48EF02F0021E011E012AD8B4022A9D
:10045C0048EF02F0026A016A48EF02F00B800BAE23
:10046C004CEF02F0026A0AAE4CEF02F0FF0E026E85
:10047C00016E0A3602324CEF02F0010E0C6E3EDEBB
:10048C004EEF02F0000E0C6E4EEF02F0FF0E0C6EF3
:0A049C000150006E0250016E1200C4
:1004A60010D0800E0101606F1AD0C00E606F17D099
:1004B600940E606F14D0D40E606F11D0800E606FF2
:1004C6000ED001016051010AECE06051020AEDE034
:1004D6006051030AEDE06051040AEDE0EFD76105D3
:1004E600006E6051002600C060F100C068F1BEDDFC
:1004F600279D646B64516225E96E000E6321EA6EE6
:10050600EE520BE064516225E96E000E6321EA6E3D
:0E051600EECF67F104DE642BEDD7278D1200C7
:100524000450000A12E10550000A0FE10650000AC7
:100534000CE10750000A09E1FF0E006EFF0E016E88
:100544007F0E026EFF0E036EA4D0086A096A07507C
:10055400D8B43DEF03F00350D8B441EF03F0025098
:1005640006180A6E028E068E0E6A02C008F001C0DA
:100574000CF000C00DF004500D5E0550D8A0053CF1
:100584000C5E0650D8A0063C085E086A0C6A0D6A28
:10059400D8A0D4EF02F0D8900232013200320832EF
:1005A400010E0E6E0750035ED8A0E1EF02F07E0E3E
:1005B4000E240326D8B045EF03F0E7EF02F07E0ED9
:1005C4000E240326D8A049EF03F0180E0B6E0D3647
:1005D4000C3608360036013602360E360450005EFC
:1005E4000550D8A0053C015E0650D8A0063C025E2A
:1005F40006340E120EA002EF03F00D800DEF03F08F
:10060400045000260550D8B0053C01260650D8B049
:10061400062802260D900B2EE9EF02F033EF03F0CB
:10062400D8900036013602360E360450005E05506E
:10063400D8A0053C015E0650D8A0063C025E0634F4
:100644000E10010B0D26D8B00C2AD8B4082AD8A451
:1006540033EF03F008320C320D32032AD8B445EFDD
:1006640003F00AAE089E0850026E0C50016E0D5045
:10067400006E4BEF03F0010E5ADD4BEF03F0020E58
:10068400EFDC4BEF03F0040E31DD4BEF03F0080E0B
:04069400DADC12009A
:10069800EAC0E1FFEBC0E2FF56C1E6FFD58E0101DB
:0406A8005481120067
:1006AC0010D0800E0101566F1AD0C00E566F17D0A5
:1006BC00940E566F14D0D40E566F11D0800E566F08
:1006CC000ED001015651010AECE05651020AEDE040
:1006DC005651030AEDE05651040AEDE0EFD75705E9
:1006EC00006E5651002600C056F1278D00C068F1EF
:0E06FC00BADC279D58C168F1B6DC278D1200CC
:0C070A000E0E0D6E0D2EFED7000012002A
:1007160001015E6B040E5E5D3BE256C1E9FF57C107
:10072600EAFFEECF00F0EECF01F0E8DD000E046E3A
:10073600000E056E480E066E850E076E4FDDCD0E59
:10074600046ECC0E056E6A0E066E840E076EE7DE2C
:1007560000C05AF101C05BF102C05CF103C05DF15B
:100766005AC100F05BC101F05CC102F05DC103F04B
:100776002ADE56C1E1FF57C1E2FF00C0E6FF01C015
:10078600E6FF020E01015627000E57235E2BC2D745
:100796005F6B040E5F5D3BE258C1E9FF59C1EAFF9A
:1007A600EECF00F0EECF01F0A9DD000E046E000ED4
:1007B600056E480E066E850E076E10DDCD0E046EB4
:1007C600CC0E056E6A0E066E840E076EA8DE00C09D
:1007D6005AF101C05BF102C05CF103C05DF15AC180
:1007E60000F05BC101F05CC102F05DC103F0EBDD1E
:1007F60058C1E1FF59C1E2FF00C0E6FF01C0E6FFB4
:10080600020E01015827000E59235F2BC2D7120092
:1008160056C1E9FF57C1EAFFEECF60F1EECF61F1B5
:10082600210E0101626F010E636F7CDD020E5625FB
:10083600006E000E5721016E00C056F101C057F13F
:1008460000C0E9FF01C0EAFFEECF60F1EECF61F133
:100856000E0E626F010E636F65DD020E5625006E89
:10086600000E5721016E00C056F101C057F100C0BD
:10087600E9FF01C0EAFFEECF60F1EECF61F1140EA1
:10088600626F010E636F4EDD020E5625006E000E7E
:100896005721016E00C056F101C057F100C0E9FFB3
:1008A60001C0EAFFEECF60F1EECF61F11A0E626F82
:1008B600010E636F37DD58C1E9FF59C1EAFFEECF7C
:1008C60060F1EECF61F1280E626F010E636F2ADDD3
:1008D600020E5825006E000E5921016E00C058F117
:1008E60001C059F100C0E9FF01C0EAFFEECF60F197
:1008F600EECF61F1420E626F010E636F13DD020EE1
:100906005825006E000E5921016E00C058F101C035
:1009160059F100C0E9FF01C0EAFFEECF60F1EECF6A
:1009260061F1480E626F010E636FFCDC020E582502
:10093600006E000E5921016E00C058F101C059F138
:1009460000C0E9FF01C0EAFFEECF60F1EECF61F132
:100956004E0E626F010E636FE5DC54872CDD010ECF
:10096600606F010E616F990E626F000E636F98DD06
:10097600010E606F050E616F210E626F010E636FCF
:100986008FDD010E606F0F0E616F280E626F010E14
:10099600636F86DD020E606F010E616FAE0E626FD1
:1009A600000E636F7DDD020E606F040E616F0E0E2A
:1009B600626F010E636F74DD020E606F0E0E616F63
:1009C600420E626F010E636F6BDD030E606F010EE8
:1009D600616FC20E626F000E636F62DD030E606FA1
:1009E600040E616F140E626F010E636F59DD030E04
:1009F600606F0E0E616F480E626F010E636F50DD01
:100A0600040E606F010E616FD60E626F000E636F8B
:100A160047DD040E606F040E616F1A0E626F010EE1
:100A2600636F3EDD040E606F0E0E616F4E0E626FD9
:080A3600010E636F35DD1200B3
:100A3E00010158B102D0829C01D0828C839856510C
:100A4E0057111BE0828E0D0E0C6EFB0E0D6E0D2ED1
:100A5E00FED70C2EFCD700000000829E0D0E0C6EF1
:100A6E00FB0E0D6E0D2EFED70C2EFCD700000000D7
:0E0A7E00010E565F000E575BE2D78388120010
:0E0A8C00F28EF28CD08EF288F292F19C120063
:100A9A00060ED56EC20ED76EF70ED66EF294F28A95
:040AAA00F1941200B1
:100AAE0093949396939E939C939A93988194819604
:100ABE008198819A819C819E0EEC00F00EEC00F0E4
:100ACE000EEC00F0818C818E818419EC00F0819403
:100ADE000EEC00F0818419EC00F081940EEC00F025
:100AEE00818419EC00F081940EEC00F0819E8184DB
:100AFE0019EC00F081940EEC00F0818419EC00F0FA
:100B0E008194819C8188818419EC00F081940EEC93
:100B1E0000F08198818E818419EC00F08194819E81
:100B2E00818419EC00F081940EEC00F0818419ECB4
:100B3E0000F08194818E818419EC00F081940EEC8A
:100B4E0000F0819E818419EC00F081948188818A65
:100B5E00818C818E818419EC00F081940EEC00F072
:060B6E000101278D1200B9
:100B7400C26A0001971D006E0050C116070EC01214
:100B8400C08E6EC100F00036009000360090005018
:100B9400C212C280B8DDC282C2A201D0FDD7C4CFC6
:100BA40001F0006AC3500012000E0112C29012003C
:100BB4000900F5CFE6FF0006FBE10106F9E11200AA
:100BC400C26A0E0EC16E010E936E946A0F0E956E7C
:0A0BD4000F0E836E928093801200D2
:100BDE0001015487DEEC01F0FFC056F1010E576F94
:100BEE003E0E586F5CDD020E606F030E616F000EDD
:100BFE00626F010E636F50DC030E606F030E616F48
:100C0E00EC0E626F000E636F47DC209D208F2791E4
:020C1E001200C2
:100C200001015487DEEC01F0020E606F070E616F68
:100C30007D0E626F000E636F36DC030E606F020E76
:100C4000616F830E626F000E636F2DDC2783279523
:060C500027972095120019
:100C5600010127B509D0838E549154935495279753
:100C66002095279F2789278B278520A53ED054B11D
:100C760003D00A0E566F0DDD31D00101838C8182BF
:100C860027BF0AD0020E566F010E576F010E586F1E
:100C9600D3DE278F27991AD027AF0CD027B90AD0D1
:100CA600F80E566F000E576F010E586FC5DE278976
:100CB600279B0CD027A90AD027BB08D0F40E566F65
:100CC600000E576F010E586FB7DE278B0ED001014D
:100CD600839C819220955491838E07D00001935175
:100CE600020ACBE09351090AF2E0010127A719D0C5
:100CF60054B103D00A0E566FCCDC09D0838A11D0CA
:100D0600839A0FD00101838C279754910AD0000152
:100D16009351020AF3E09351070AF2E09351090A4C
:100D2600F1E0010154A313D02E0E566F010E576F3A
:100D3600360E586F010E596FEBDC2E0E566F010EF4
:100D4600576F360E586F010E596F62DD548554A5E4
:0A0D560001D0FDD727B588D71200A1
:100D600083B002D00101208783B202D00101208923
:100D700083B402D00101208B83A20DD0010120A9F0
:100D80000AD00001FF2BFF51030802E2020EFF6FA1
:100D900001012099208D83A007D0010120A704D054
:100DA00000017C2B0101209783A409D0010120AB15
:100DB00006D0209B00017C510008D8A07C071200BF
:100DC00001015487DEEC01F00C0E686F39EC00F085
:100DD000010E606F040E616F700E626F000E636F24
:100DE00053EC02F0020E606F040E616F240E626F0E
:100DF000000E636F53EC02F0030E606F040E616F20
:100E0000320E626F000E636F53EC02F0040E606FDF
:100E1000040E616F3D0E626F000E636F53EC02F0C3
:080E20002081279320931200AA
:100E2800FF0E01013E6FFF0E3F6FFF0E406FFF0E7A
:100E3800416FC26A0001971D006E0050C116070E6F
:080E4800C012C08EC28012002E
:100E500001015487DEEC01F0020E606F010E616F3C
:100E60004C0E626F000E636F53EC02F0030E606F66
:100E7000010E616F5E0E626F000E636F53EC02F045
:060E8000278127931200F8
:100E860000C021F001C020F002C01FF004C01EF017
:100E960005C01DF008C01CF009C01BF00CC01AF0FC
:100EA6000DC019F0E1CF22F0E2CF23F00101696B0A
:100EB6006A6B0A0E6B6F6B530CE06E6B58DE00505C
:100EC6000101692701506A236B05006E00C06BF1B2
:100ED600F2D7F2A27FD081B003D0010E0001986F45
:100EE60081A003D00001010E946F81B02CD00001C7
:100EF600985329E0839E96C000F0000E016E0036DE
:100F0600009001362E0E002401016C6F010E0120A7
:100F16006D6F0A0E046E000E056E69C100F06AC19F
:100F260001F0D6EC00F0640E005E010E015A6CC1B1
:100F3600E1FF6DC1E2FF00C0E6FF01C0E6FF2787C3
:100F46000001986B32D081A030D0000194532DE07F
:100F5600839C96C000F0000E016E003600900136AC
:100F6600360E002401016C6F010E01206D6F0A0E12
:100F7600046E000E056E69C100F06AC101F0D6EC80
:100F860000F0640E005E010E015A6CC1E1FF6DC1F6
:100F9600E2FF00C0E6FF01C0E6FF20850001965192
:100FA600010F006E00C096F0946B0001F292010EE4
:100FB6009515006E00B002D0F19C01D0F18C9551D0
:100FC600010F006E00C095F09651040A03E1F298F5
:100FD6000101548321C000F020C001F01FC002F0BF
:100FE6001EC004F01DC005F01CC008F01BC009F0AF
:100FF6001AC00CF019C00DF022C0E1FF23C0E2FFB9
:021006001100D7
:10100800D7EC08F0DBDD3EDD44DD4DDD09DFD4DE65
:101018008388A2DE010120A107D000017C51010ACA
:1010280003E1D9DD20972091010120BD08D020BF20
:1010380005D000017C51010A01E101D001D0CBDDCE
:1010480000017C51020A05E1010127B102D0FCDE52
:10105800209F00017C51030A06E1010127B303D058
:1010680020B301D0D9DD010127A301D0F0DDD1D70C
:02107800FFD7A0
:10107A0000C018F0156ED8CF16F0E0CF17F0F2A422
:10108A0013D0010155510001935D06E29351010FFE
:10109A00006E00C093F003D0010E936FD59EC20E6E
:1010AA00D76EF70ED66EF2941750E06E1650D86EC1
:0A10BA00153A153818C000F01000B8
:1011AE0010EE24F0EA0E006E010E016EC40EF66E05
:0E11BE00100EF76E000EF86EDAEC05F012005F
:0E10C400456C6574726F6E69636F2064650021
:0B10D2005072657373616F2E2E2E00AC
:0F10DD00417065727465205B454E5445525D004D
:1010EC005B454E5445525D202D20496E6963696104
:0210FC00720080
:1010FE005B52455455524E5D202D20566F6C7461D7
:02110E0072006D
:0C1110005265676973747261646F72004D
:01111C0000D2
:06111D00546573746500C7
:10112300456D20416E64616D656E746F2E2E2E00C9
:0111330001BA
:0111340000BA
:0111350003B6
:0111360000B8
:011137003087
:0111380000B6
:101139004E45423A2020202020205265743A202032
:05114900202020200021
:10114E004E423A2020202020205265743A20202042
:04115E00202020002D
:101162004E4D3A2020202020205265743A20202023
:041172002020200019
:101176004E413A2020202020205265743A2020201B
:041186002020200005
:02118A0055010D
:10118C00556C74696D6F7320526573756C74616402
:03119C006F73006E
:01119F00024D
:0E11A000496E6963696172205465737465005D
:020000040030CA
:0E000000000C1E1EFF8181FF0FC00FE00F409D
:00000001FF
